:020000040800F2
:1000000000C0002095020008E50200081D47000816
:1000100023470008294700082F4700080000000078
:100020000000000000000000000000009D670008C4
:10003000E502000800000000376800084768000873
:10004000E5020008E5020008E5020008E5020008F4
:10005000E5020008E5020008E5020008E5020008E4
:10006000E5020008E5020008E5020008991700080B
:10007000A9170008B9170008C9170008D917000800
:10008000E9170008F9170008E5020008C50700088D
:10009000B5070008E5020008D5070008E5020008DA
:1000A000E5020008E5020008E5020008E502000894
:1000B000E50200080000000000000000E502000862
:1000C000E50200080000000000000000FD15000827
:1000D00000000000E5020008E50200080000000042
:1000E000E5020008E5020008000000000000000032
:1000F0000000000000000000000000000000000000
:100100000000000000000000000000000D160008C4
:100110000000000000000000E5020008E502000801
:1001200009180008191800082918000839180008CB
:100130004918000800000000000000000000000056
:10014000E5020008E5020008E5020008E5020008F3
:100150005918000869180008E5020008E5020008BF
:10016000E5020008E5020008E502000800000000C2
:10017000E5020008E50200080000000000000000A1
:10018000E5020008E5020008E50200080348044B08
:10019000834202D0034B03B118477047300200205E
:1001A00030020020000000000548064B1B1AD90F42
:1001B00001EBA301491002D0034B03B1184770476C
:1001C00030020020300200200000000010B5064C74
:1001D000237843B9FFF7DAFF044B13B10448AFF3B8
:1001E00000800123237010BD3002002000000000B9
:1001F0002CB0000808B5054B1BB105490548AFF305
:100200000080BDE80840FFF7CFBF00BF000000003E
:10021000340200202CB00008A3F5803A704700BFDC
:10022000174B002B08BF134B9D46FFF7F5FF00212E
:100230008B460F461348144A121A08F0C3FE0E4BA1
:10024000002B00D098470D4B002B00D09847002082
:10025000002104000D000D48002802D00C4805F0D4
:1002600089FF08F013FF2000290008F0DBF806F0F2
:10027000D3F900BF00000800000000005D83000803
:1002800000C0002030020020D0240020756100084A
:1002900000000000DFF834D002F0F4FF002103E09A
:1002A0000B4B5B58435004310A480B4B42189A429F
:1002B000F6D30A4A02E0002342F8043B084B9A4274
:1002C000F9D3FFF7ADFF7047FEE7000000C0002044
:1002D00038B000080000002030020020300200206A
:1002E000D0240020FEE730B5ADB000242794289438
:1002F00029942A942B9416AD44222146284608F0CE
:1003000061FE5422214601A808F05CFE04231693E6
:1003100001231893284601F007FD18B10024204658
:100320002DB030BD04461023169301231C930022E8
:100330001D92B0221E920222209221930623229324
:1003400028232393072324930423259326932846C5
:1003500001F0EAFC05460028E1D102F047FB0F233B
:10036000279303232893002329932A932B93042173
:1003700027A802F019F808B90124D0E72C46CEE7E7
:1003800008B5FFF7B0FF00B108BD014805F0BAFCA1
:10039000209D0008002807DB00F01F024009012310
:1003A0009340024A42F82030704700BF00E100E06D
:1003B00000280CDB00F01F0240090123934020308D
:1003C000034A42F82030BFF34F8FBFF36F8F70475F
:1003D00000E100E010B582B000F0FEFF041E41DB3A
:1003E000214B53F8240000283CD004EB44131F4A4F
:1003F00052F82330DA6912F0800F0BD0DA6912F06C
:10040000800F07D01B6813F0800F03D0184B1B68B8
:100410000121984704EB4413144A52F82330DA6957
:1004200012F0200F0ED0DA6912F0200F0AD01B68EC
:1004300013F0200F06D00E4B1B6800210A4A52F819
:100440002400984704EB4414084B53F82430DA692D
:1004500012F0080F06D0DA6912F0080F02D09B8C58
:100460009BB2019302B010BDDC03002050020020BB
:100470004C02002008B50248FFF7ACFF08BD00BFE2
:100480000080004008B50248FFF7A4FF08BD00BF88
:100490000044004008B50248FFF79CFF08BD00BFBC
:1004A00000380140034B19604168034B43F8212099
:1004B000704700BF4C020020DC03002010B54368E9
:1004C00000682D4CA04223D004F53844A04206D049
:1004D000A4F57444A04218D00024204601E0274C23
:1004E000252012B3B9B903EB4313254A52F8232050
:1004F000136843F020031360224B9B6800F1100245
:1005000043F82240FFF746FF10BD1F4C2620E8E7C6
:100510001E4C4620E5E703EB4313194A52F823200B
:10052000136843F080031360E6E799B9144903EBBD
:10053000431251F82240226822F02002226003EB8D
:10054000431351F823301B6813F0800FDCD1FFF701
:100550002FFFD9E70A4903EB431251F822402268E2
:1005600022F08002226003EB431351F823301B6812
:1005700013F0200FC8D1EAE700800040950400087E
:100580005002002000ED00E085040008750400081A
:1005900070B50446456805EB4512354B03EB820305
:1005A0009B68B3F5805F0ED063BB05EB4512304B03
:1005B00003EB82031B69E3B92D4B03EB8203FF229C
:1005C000A3F85C2029E02A4B03EB82031B693BB9AB
:1005D000274B03EB820340F2FF12A3F85C201CE0E0
:1005E00005EB4512224B03EB8203FF22A3F85C20AC
:1005F00013E005EB45121E4B03EB82037F22A3F8A9
:100600005C200AE0B3F1805F1BD005EB4512184B6C
:1006100003EB82030022A3F85C2005EB4512144B88
:1006200003EB8203B3F85C60204600F0F3FD002882
:10063000FAD005EB45150E4B53F82530988C304019
:1006400070BD05EB45120A4B03EB82031B6933B9FE
:10065000074B03EB82037F22A3F85C20DDE705EB69
:100660004512034B03EB82033F22A3F85C20D4E73F
:100670005002002070B504460D464668204600F042
:10068000E1FD0028FAD006EB4616034B53F826305E
:10069000C5F308051D8570BD50020020F0B591B06E
:1006A00004460D460090436913F0010F25D0806881
:1006B0003B4900EA0106A2683A4B1340A26822F0C7
:1006C0006F4222F47C02120C120481435DD0354942
:1006D0008B425DD034498A425ED031498E4205D08A
:1006E00030498B4202D0304B9A4206D12F4B1B68C7
:1006F00001212F4A52F825009847E268636903F008
:10070000020312F0030F0BD053B1636923F002030D
:100710006361264B1B680021254A52F82500984743
:10072000A169636903F40073626902F4004211F085
:10073000020F08D03BB132B11C4B1B6805211C4A8B
:1007400052F825009847A769666906F480666369D0
:1007500003F4004317F0040708D03EB133B1134B44
:100760001B680721124A52F825009847636903F471
:10077000004347B13EB133B10C4B1B6802210C4A18
:1007800052F82500984711B0F0BD0121A1609EE705
:100790004FF48071A1609DE74FF48031A1609CE728
:1007A000030000040003000800000310E803002019
:1007B000EC03002008B500210148FFF76FFF08BDDA
:1007C0000064004008B500210148FFF767FF08BD3D
:1007D0000064004008B500210148FFF75FFF08BD35
:1007E0000064004010B4046891FAA1F3A3B1B3FA15
:1007F00083F35B004FF0030C0CFA03F324EA0303CA
:1008000091FAA1F151B1B1FA81F149008A40134343
:1008100003605DF8044B70472023EAE72021F4E7EA
:1008200000B585B0072838D8DFE800F004131F377B
:100830003737372B1A4BDA6C42F00102DA64DB6C83
:1008400003F001030093009B4FF0904005B05DF86A
:1008500004FB134BDA6C42F00202DA64DB6C03F047
:1008600002030193019B0F48F0E70D4BDA6C42F055
:100870000402DA64DB6C03F004030293029B0A486F
:10088000E4E7074BDA6C42F08002DA64DB6C03F0D9
:1008900080030393039B0548D8E7054805F032FA27
:1008A000001002400004004800080048001C0048F6
:1008B000349D000810B5B0F1FF3F09D004464FF455
:1008C000707100F083FB04F00F040120A04010BD04
:1008D00077220249024804F0CFFF00BF979D00082D
:1008E000A49D000870B504460182B1F1FF3F1AD003
:1008F0000D46C1F30310FFF793FF06462846FFF7A6
:10090000D9FF20606661B4F9103003F00F03064A86
:1009100052F82330A36106F11003636006F1180357
:10092000A3602836E66070BDCCAC000808B5B0F90D
:10093000100000F0A9FB08BD08B529B900228169A3
:100940004069FFF74FFF08BD012281694069FFF749
:1009500049FFF8E708B500F07FFE002008BD000061
:1009600010B505F041F84FF08043596A134A1368F7
:10097000CB1A1348008803441160B3F5803F1AD3A3
:10098000104AA2FB031292094FF47A7101FB123153
:100990000B4B198007E00132A3F57A73B3F57A7F28
:1009A000F9D207490B80084C23681344236005F0F3
:1009B00033F8206810BD0022F0E700BFF8030020E4
:1009C000F0030020D34D6210F4030020004870476C
:1009D000C4AC0008044BD86901E0034BD869024B52
:1009E000DB698342F9D17047007C004008B504F010
:1009F000FBFF074B01221A70064B00221A70064BB0
:100A00000222C3F808219A6005F006F808BD00BF6D
:100A10000C0400200B04002000E100E008B504F005
:100A2000E3FF144B1B7853B9134B1B681A6812F081
:100A3000080FF9D008225A600E4B01221A700F4B92
:100A40001B788BB900230E4A13700E4A13700E4B9D
:100A50000222C3F88820BFF34F8FBFF36F8FC3F814
:100A6000882104F0D9FF08BD05F032FB034B0022BA
:100A70001A70E7E70804002010040020000400209A
:100A80000B0400200C04002000E100E030B5A9B008
:100A9000434B1B68002B76D10125414B1D6054222E
:100AA000002113A808F08EFA02AC4422002120464F
:100AB00008F088FA0423029304954FF4007313930B
:100AC0004FF440232093204601F02EF900285DD1F9
:100AD00013A801F017FE00285BD1324B9A6D42F04B
:100AE00000429A659A6D02F000420192019A9A6B57
:100AF00042F000429A639A6B22F000429A632A48BD
:100B0000A3F5CA330360002380F836304360836066
:100B10004FF6FF7242614FF480228261C361C3606D
:100B20000361036243628362C362036300F070FF88
:100B3000002831D11D4B9B681D4AC3F844211D4A32
:100B4000136A43F001031362174C23689A6842F05A
:100B500001029A609A6842F008029A604FF6FF71AB
:100B6000204600F0B3FF226808235360002353613E
:100B7000136813F0080FFBD0082353600E4B0122BB
:100B80001A7029B030BDFFF749FFFAE70B4805F0AE
:100B9000B9F80B4805F0B6F80A4805F0B3F800BFFD
:100BA000FC030020001002401004002000ED00E0D3
:100BB000CD0C00080004014008040020B89D000886
:100BC000D49D0008F89D000808B504F00DFF054B02
:100BD0001B6801225A60044B0222C3F8882104F0EA
:100BE0001BFF08BD1004002000E100E038B50446FA
:100BF00004F0FAFEFFF7EEFE05462C4B1C602C4B72
:100C000002229A602B4B1B7823BB621F4FF6F573B1
:100C10009A420BD94FF6FA73984207D9264B012214
:100C20001A700634A4B2214B1C6009E0224B00224A
:100C30001A701E4B1B68AB4208D3204B01221A705E
:100C40001F4B01221A7004F0E7FE38BD1B4B002237
:100C50001A70F5E7FFF7B8FF002301E00133DBB2BC
:100C6000042B06D85A1992B2A242F7D10534A4B285
:100C7000F4E7AC4209D24FF6FA739D4205D8114B06
:100C80001B684FF0FF325A6102E00E4B1B685C613B
:100C9000084B00221A700C4B1B78002BD3D105F0A7
:100CA000FBF9094B01221A70CDE700BF04040020B4
:100CB00000E100E008040020090400200A040020EC
:100CC0000B040020100400200004002008B504F0EC
:100CD0008BFE344B1B78002B34D1334B1B681A68C6
:100CE00012F0010F03D09A6812F0010F34D12E4B8D
:100CF0001B681A6812F0080F21D09A6812F0080FCA
:100D00001DD008225A60294B01221A70284B1B78EB
:100D10003BBB284B1B7893B1274B1B783BBB274B26
:100D20001B782BB1FFF756FE254B1B68984233D238
:100D3000234B1868FFF75AFF1E4B00221A7004F06D
:100D40006BFE08BD174B00221A70174B1B6801225F
:100D50005A6003F001FAC0E701225A6003F0FCF97F
:100D6000C5E705F0B5F9124B00221A70D1E7FFF77D
:100D700031FE831D9BB2124A1268934205D3FFF7DE
:100D800035FE0D4B00221A70D6E70D4B1868063859
:100D900080B2FFF72BFFF4E7FFF728FE074B002296
:100DA0001A70C9E70C040020100400200804002079
:100DB000000400200B040020090400200A04002085
:100DC0000404002008B5FFF729FE08BD08B500F0AF
:100DD000A9FE044AD2F8903023F01803C2F89030EC
:100DE00008BD00BF001002407047704708B5FFF70C
:100DF000FCFF02F06DFA00F040FD094BD3F8903093
:100E000013F0020F01D1FFF7E1FFFFF7B9FA02F08B
:100E10005FFAFFF7E9FF034B01221A6008BD00BF2C
:100E2000001002404804002010B4846891FAA1F335
:100E3000A3B1B3FA83F35B004FF0030C0CFA03F396
:100E400024EA030391FAA1F151B1B1FA81F1490009
:100E50008A40134383605DF8044B70472023EAE720
:100E60002021F4E710B4446A090A91FAA1F3A3B16E
:100E7000B3FA83F39B004FF00F0C0CFA03F324EA50
:100E8000030491FAA1F151B1B1FA81F189008A40CC
:100E9000144344625DF8044B70472023EAE72021A5
:100EA000F4E710B4046A91FAA1F3A3B1B3FA83F39F
:100EB0009B004FF00F0C0CFA03F324EA030391FAA2
:100EC000A1F151B1B1FA81F189008A401343036263
:100ED0005DF8044B70472023EAE72021F4E7000087
:100EE00008B50B4601F00F0C054951F82C1013F012
:100EF000080F02D0FFF7B6FF08BDFFF7D2FFFBE7F0
:100F0000CCAC000810B4046891FAA1F3A3B1B3FA11
:100F100083F35B004FF0030C0CFA03F324EA0303A2
:100F200091FAA1F151B1B1FA81F149008A4013431C
:100F300003605DF8044B70472023EAE72021F4E7C3
:100F400010B4C46891FAA1F3A3B1B3FA83F35B00C0
:100F50004FF0030C0CFA03F324EA030391FAA1F116
:100F600051B1B1FA81F149008A401343C3605DF881
:100F7000044B70472023EAE72021F4E708B5012A53
:100F800005D0022A07D00022FFF7DAFF02E0012293
:100F9000FFF7D6FF08BD0222FFF7D2FFFAE700688D
:100FA00091FAA1F373B1B3FA83F35B00032202FA5F
:100FB00003F3184091FAA1F131B1B1FA81F149007E
:100FC000C84070472023F0E72021F8E7B0F1FF3F49
:100FD00052D02DE9F04705460C4601F00707C1F352
:100FE000832AC1F3831900F00F03244A52F82380A7
:100FF000C0F30310FFF714FC0646B9F10F0F09D038
:101000004A464146FFF710FF032F1FD8DFE807F0DD
:101010002325071C03224146FFF706FFF4E752464B
:1010200029463046FFF75CFF022241463046FFF773
:1010300069FF013F012F12D9C4F301124146304626
:10104000FFF79CFFBDE8F0870322EEE7D5220C49AD
:101050000C4804F011FC0022E7E70122E5E714F058
:10106000080F04D0736848EA03037360E4E7736809
:1010700023EA08037360DFE7704700BFCCAC0008C9
:101080004F9E0008D0A70008B0F1FF3F38D070B5E0
:101090000D4600F00F021B4B53F82260C0F3031003
:1010A000FFF7BEFB04463146FFF779FF0138012800
:1010B00007D9691E04291DD8DFE801F01016101C9D
:1010C0001600EB1EDBB2022B03D863683343636068
:1010D000EFE7636823EA06036360EAE7012231462B
:1010E0002046FFF72DFF70BD022231462046FFF754
:1010F00027FFF8E7002231462046FFF721FFF2E7FD
:10110000704700BFCCAC00080FB400B583B004AA90
:1011100052F8041B0192054B1B68D86804F09EF836
:1011200003B05DF804EB04B0704700BFCC010020B1
:1011300010B504460268334B9A4227D02268324BDE
:101140009A4232D02268314B9A423DD040F2C331AC
:10115000B4F91800FFF73AFF40F2C331B4F91A00AE
:10116000FFF734FF236AB3F5807F3CD0B3F5407FAF
:1011700039D0236AB3F5007F3CD0B3F5407F39D036
:101180006268234B002143F8221010BD03F5584339
:101190001A6C42F480421A641A6C22F480421A6477
:1011A0001A6E22F480421A66C8E703F5E6339A6B9A
:1011B00042F400329A639A6B22F400329A639A6D79
:1011C00022F400329A65BDE703F5C833DA6B42F0CA
:1011D0000102DA63DA6B22F00102DA63DA6D22F0DF
:1011E0000102DA65B2E740F2C331B4F92400FFF737
:1011F000EDFEBEE740F2C331B4F92600FFF7E6FE8C
:10120000BEE700BF003801400044004000800040BD
:10121000DC030020436803EB4311094A52F8212004
:10122000D16911F0080F01D00821116203EB4313BB
:10123000034A52F82330D869C0F34010704700BF0A
:1012400050020020436803EB4313034A52F8233053
:10125000D869C0F3C01070475002002010B5426832
:1012600002EB421C284B03EB8C04016843F82C1062
:1012700083686360C368A3600369E36043692361B3
:10128000036AA3610023E361A4F85230A4F850304C
:10129000A4F85A30A4F8583023626362B0F91A30C7
:1012A000B3F1FF3F12D0B0F91830B3F1FF3F10D0C7
:1012B00002EB4212144B03EB82030C225A61134BD4
:1012C00099420ED0204601F060FF10BD08226261F5
:1012D000F5E702EB42120C4B03EB820304225A6146
:1012E000EDE7826842F6AA239A4206D8204601F02A
:1012F0007DFF204601F0A0FFE4E7204601F089FFD2
:10130000204601F0ACFFDDE75002002000800040E5
:1013100070B5A6B004460D46816002682A4B9A4219
:101320002DD15422002111A807F04CFE2023119347
:1013300042F6AA239D420BDC244BD3F8903013F0E5
:10134000020F22D0214BD3F8903013F0020F2AD194
:1013500000231B9311A801F0D5F92046FFF77EFF6B
:1013600088B14FF480631B9311A801F0CBF920469C
:10137000FFF774FF38B129461548FFF7C5FE204630
:10138000FFF76CFFD8B926B070BD44220021684633
:1013900007F018FE04230093012302930A93684682
:1013A00000F0C2FCCEE74FF440631B9311A801F09C
:1013B000A9F92046FFF752FF0028C9D1E3E72946E3
:1013C0000448FFF7A1FEDEE7008000400010024065
:1013D000589E0008A49E0008094B98420CD0A3F523
:1013E000744398420AD003F57053984201D1022009
:1013F00070474FF0FF307047002070470120704762
:101400000038014030B585B00B680360B3F1FF3F91
:1014100042D004460D463D4A934242D022683C4B9E
:101420009A4249D022683B4B9A4251D02068FFF73C
:10143000D3FF6060002857DBA968B5F90400FFF707
:10144000C5FD0121B5F90400FFF71EFE2969B5F9B4
:101450000C00FFF7BBFD0121B5F90C00FFF714FEEE
:101460004FF41653A3602B7D002B42D04FF4E13391
:10147000A3600023E360236163612362B5F9043054
:101480002383B5F90C3063832046FFF7E7FE2B7DFD
:10149000002B32D105B030BD41221F491F4804F056
:1014A000EBF91F4B1A6E42F480421A661B6E03F46E
:1014B00080430193019BB1E703F5E6339A6D42F453
:1014C00000329A659B6D03F400330293029BA9E7F7
:1014D00003F5C833DA6D42F00102DA65DB6D03F023
:1014E00001030393039BA1E7A0220B490D4804F0DD
:1014F000C3F94FF4E133A360BBE70B4B01221A6041
:101500004C222146094807F0E8FDC3E700380140B6
:1015100000440040008000400F9F00081C9F00080E
:1015200000100240389F0008980400204C0400205E
:101530002DE9F04786B007460C461546DFF8809047
:101540004946204602F03AFE0646DFF87C804146D6
:10155000284602F033FE0146304602F009FE82467C
:101560004946204602F046FE81464146284602F0A2
:1015700041FE8046022C20D00F2D13D10123CDF83F
:1015800000A0ADF80440CDF80890ADF80C50CDF8AF
:1015900010808DF8143069463846FFF733FF06B0E7
:1015A000BDE8F0870649022002F008FEB04201D0F3
:1015B0000023E4E7034804F0A5FB0123DFE700BFB5
:1015C000F09C00084C9F0008C09C000808B504F07F
:1015D0000BFA094B1B6813F4804F07D001214FF41D
:1015E000804000F0A7FA04F017FA08BD012100209E
:1015F00000F0A0FAF7E700BF0070004008B5024B0A
:10160000186801F0FDF908BDA004002008B5024BE0
:10161000186801F0F5F908BD9C04002008B54FF0EA
:1016200080430A4A13601B6913F0020F05D04FF084
:101630008043DB6813F0020F00D108BD4FF08043F8
:101640006FF002021A6103F005F8F6E7A404002027
:10165000004870470CAD000830B589B002A903A856
:1016600000F07AFF00F054FF0290244B9A6D42F094
:1016700001029A659A6D02F001020192019A9A6B39
:1016800042F001029A639A6B22F001029A631C4BAA
:101690004FF080421A604FF0FF32DA60069B1BBBAE
:1016A000184BA3FB00039B0C1344154A5360144CC6
:1016B00000252561A5606561A561204601F074FAE9
:1016C000114B9B68114AC3F8B020114B4FF0805268
:1016D0001A602946204601F0A7FA2268D36823F051
:1016E0000203D36009B030BD4000064BA3FB0030BD
:1016F000800C0138024B5860D9E700BF001002404F
:10170000A404002083DE1B4300ED00E01D1600084A
:1017100000E100E008B505480268D36823F0020341
:10172000D360002101F080FA08BD00BFA4040020AE
:101730004FF08043586A7047054B1B6858636FF041
:1017400002021A61DA6842F00202DA60704700BFF2
:10175000A4040020064B1B686FF002021A615A694C
:1017600042F002025A61DA6842F00202DA6070471F
:10177000A4040020034B1A68D36823F00203D3604B
:10178000704700BFA4040020024B1B686FF00202E8
:101790001A617047A404002008B5024B186800F0D5
:1017A000B4F808BDF004002008B5024B586800F0FA
:1017B000ACF808BDF004002008B5024B986800F0B2
:1017C000A4F808BDF004002008B5024BD86800F06A
:1017D0009CF808BDF004002008B5024B186900F021
:1017E00094F808BDF004002008B5024B586900F0D9
:1017F0008CF808BDF004002008B5024B986900F091
:1018000084F808BDF004002008B5024BD86900F048
:101810007CF808BDF004002008B5024B186A00F0FF
:1018200074F808BDF004002008B5024B586A00F0B7
:101830006CF808BDF004002008B5024B986A00F06F
:1018400064F808BDF004002008B5024BD86A00F027
:101850005CF808BDF004002008B5024B186B00F0DE
:1018600054F808BDF004002008B5024B586B00F096
:101870004CF808BDF0040020704710B5032000F0BC
:101880000BF80F20FFF766F810B10124204610BDB9
:101890000446FFF7F1FFF9E7074AD36823F4E06352
:1018A0001B041B0C000200F4E060034343F0BF6321
:1018B00043F40033D360704700ED00E008B590F8C2
:1018C0002530022B03D00423C363012008BD026826
:1018D000136823F00E0313600268136823F00103FA
:1018E0001360436C03F01C03016C012202FA03F342
:1018F0004B6080F82520002380F82430836B13B1DF
:1019000098470020E2E70020E0E738B5036C19684B
:1019100004682568436C03F01C0304229A400A42C1
:1019200015D015F0040F12D0236813F0200F03D147
:10193000236823F004032360436C03F01C02016C52
:10194000042393404B60036B03B1984738BD0222D8
:101950009A400A421CD015F0020F19D0236813F0E8
:10196000200F06D1236823F00A032360012380F8A7
:101970002530436C03F01C02016C022393404B6042
:10198000002380F82430C36A002BDFD09847DDE7BE
:10199000082202FA03F30B42D8D015F0080FD5D075
:1019A000236823F00E032360436C03F01C03016CD7
:1019B000012202FA03F34B60C26380F82520002362
:1019C00080F82430436B002BC0D09847BEE700005E
:1019D00084460C4B1B680C4AA2FB03239B0B4FF461
:1019E0007A7202FB03F3002006E0DCF800201268A4
:1019F00031EA020204D01BB1013BF6D10320F4E727
:101A0000704700BF080000205917B7D17047000089
:101A1000002854D0F8B5044690F83630002B44D056
:101A2000022384F836302568EB686168012903D009
:101A3000A26AB2F5000F01D123F01E0362694FF6CE
:101A4000FF70824203D023F4604323F0C0031D489B
:101A50001840A3680B43266A3343666A3343A66A79
:101A60003343034319B9E069276938430343012924
:101A700002D0B6F5000F03D1E168206901430B43A2
:101A80004FF6FF718A4204D0A1690A43E1690A4313
:101A90001343EB6023680C4A93420BD0E26A1A624C
:101AA000012384F836300020F8BD80F83530FFF788
:101AB000ADFFB5E7E26A216B0A431A62F0E7012045
:101AC000704700BFFEF119FF007C004010B50446CE
:101AD0000B46022280F836204268012A03D0826A2F
:101AE000B2F5000F18D021680A6942F001020A61BC
:101AF000226810215160226893612046FFF768FF39
:101B0000032808D02268136943F0040313610123FA
:101B100084F83630002010BD0168CA6822F4606283
:101B2000CA60E0E7024A136843F4807313607047A9
:101B30000070004010B50C46A0B90F4B5B6913F460
:101B4000007F0AD10D4A136923F004031361012CAD
:101B500010D040BF20BF20BF10BD00F021F80028EA
:101B6000F0D0F9E7044B5B6913F4007FEAD100F091
:101B70000FF8E7E730BFEFE70070004000ED00E04E
:101B8000024B186800F4C060704700BF007000404E
:101B9000024A136843F480431360704700700040AA
:101BA000104A136823F4804313600F4B1B683222E2
:101BB00002FB03F30D4AA2FB03239B0C013300E05D
:101BC000013B084A526912F4007F01D0002BF7D183
:101BD000044B5B6913F4007F01D1002070470320A0
:101BE000704700BF007000400800002083DE1B43E8
:101BF00030B583B00446204B9B6D13F0805F0BD053
:101C0000FFF7BEFFB0F5007F17D0802C1FD82DD076
:101C1000702C2DD000211BE0174DAB6D43F080538D
:101C2000AB65AB6D03F080530193019BFFF7A8FFF9
:101C3000AB6D23F08053AB65E4E7802C03D9A02C77
:101C400003D9022104E0002102E0012100E0032188
:101C50000A4A136823F007030B431360136803F069
:101C600007038B4206D1002003B030BD0221EFE70D
:101C70000121EDE70120F7E70010024000200240BB
:101C8000254A9368D26802F0030213F00C0309D0CE
:101C90000C2B05D0042B3BD0082B3BD000200FE0B1
:101CA000012AF7D11C4A126812F0080F0CD11A4A07
:101CB000D2F89420C2F30322184951F8220013B13C
:101CC0000C2B06D000207047134A1268C2F303128F
:101CD000F2E7114BDB6803F00303022B16D0032B52
:101CE00000D10F480C49CA68C2F302120132CB6816
:101CF000C3F3062300FB03F3B3FBF2F3C868C0F39E
:101D0000416001304000B3FBF0F070470548E9E75F
:101D100004487047024870470010024014AD0008A4
:101D200000127A000024F400002800F02783F0B5A8
:101D300083B00446964B9D6805F00C05DE6806F0FE
:101D40000306036813F0100F5AD0E5B10C2D18D01C
:101D5000A369002B00F0BB808D4A136843F0010398
:101D60001360FEF7FDFD0746894B1B6813F0020F59
:101D700040F09A80FEF7F4FDC01B0228F4D903203E
:101D800007E3012EE4D1824B1B6813F0020F03D04E
:101D9000A369002B00F0F482206A7D4B1B6813F0CE
:101DA000080F5BD07A4B1B6803F0F00398425CD8B5
:101DB000774B1A6842F008021A601A6822F0F002A3
:101DC000216A0A431A605A6822F47F42E16942EAB2
:101DD00001225A60002D60D0FFF752FF6C4B9B68C8
:101DE000C3F303136B4AD35C03F01F03D8406A4B61
:101DF00018606A4B1868FEF7ADFD002840F0C982F4
:101E0000236813F0010F00F08180082D75D00C2D90
:101E100071D06368B3F5803F00F09780B3F5A02FD1
:101E200000F099805A4B1A6822F480321A601A68BE
:101E300022F480221A606368002B00F09980FEF77C
:101E40008FFD0746524B1B6813F4003F5ED1FEF72F
:101E500087FDC01B6428F5D903209AE24C4BD3F8C8
:101E600094301B0903F0F003A0E7FFF7C1FE002840
:101E700040F08882464B1A6842F008021A601A68DD
:101E800022F0F002216A0A431A605A6822F47F4263
:101E9000E16942EA01225A609EE7206AFFF7A8FE44
:101EA000002899D0012074E2394B1A6842F00802E8
:101EB0001A601A6822F0F002216A0A431A605A680E
:101EC00022F47F42E16942EA01225A6098E7304AEF
:101ED000136823F001031360FEF742FD07462C4B05
:101EE0001B6813F0020F8BD0FEF73AFDC01B0228CF
:101EF000F5D903204DE2032E8BD1254B1B6813F43B
:101F0000003F03D06368002B00F03E82236813F08B
:101F1000020F58D0042D45D00C2D41D0E368002B82
:101F200077D01B4A136843F480731360FEF718FDE3
:101F30000646174B1B6813F4806F61D1FEF710FD46
:101F4000801B0228F5D9032023E2114A136843F4C9
:101F5000803313606FE703F18043A3F53C331A68C5
:101F600042F480221A601A6842F480321A6062E7F2
:101F7000FEF7F6FC0746064B1B6813F4003FC5D07E
:101F8000FEF7EEFCC01B6428F5D9032001E200BF78
:101F9000001002404CAD00080800002004000020A2
:101FA000022EBBD1AC4B1B6813F4806F03D0E368E7
:101FB000002B00F0EB81A84A536823F0F853216905
:101FC00043EA01635360236813F0080F4CD0636940
:101FD0009BB3A14AD2F8943043F00103C2F8943085
:101FE000FEF7BEFC06469C4BD3F8943013F0020F6C
:101FF0003AD1FEF7B5FC801B0228F4D90320C8E1D2
:10200000954A536823F0F853216943EA016353600A
:10201000D9E7914A136823F480731360FEF7A0FC9C
:1020200006468D4B1B6813F4806FCCD0FEF798FCEE
:10203000801B0228F5D90320ABE1874AD2F89430FF
:1020400023F00103C2F89430FEF78AFC0646824B67
:10205000D3F8943013F0020F06D0FEF781FC801BFA
:102060000228F4D9032094E1236813F0040F7AD0F6
:10207000794B9B6D13F0805F36D1774B9A6D42F0B0
:1020800080529A659B6D03F080530193019B01265A
:10209000724B1B6813F4807F28D0A368012B39D0C2
:1020A000052B3FD06C4BD3F8902022F00102C3F8EF
:1020B0009020D3F8902022F00402C3F89020A36867
:1020C000002B3DD0FEF74CFC0746634BD3F8903015
:1020D00013F0020F46D1FEF743FCC01B41F28833D8
:1020E0009842F2D9032054E10026D1E75B4A1368F5
:1020F00043F480731360FEF733FC0746574B1B68AD
:1021000013F4807FC9D1FEF72BFCC01B0228F5D940
:1021100003203EE1504AD2F8903043F00103C2F868
:102120009030CCE74C4BD3F8902042F00402C3F837
:102130009020D3F8902042F00102C3F89020BEE72F
:10214000FEF70EFC0746444BD3F8903013F0020F15
:1021500008D0FEF705FCC01B41F288339842F2D943
:10216000032016E1E6B9236813F0200F35D0636A27
:10217000E3B1394AD2F8983043F00103C2F89830FD
:10218000FEF7EEFB0646344BD3F8983013F0020FFF
:1021900023D1FEF7E5FB801B0228F4D90320F8E0E9
:1021A0002D4A936D23F080539365DCE72A4AD2F8D9
:1021B000983023F00103C2F89830FEF7D1FB0646B1
:1021C000254BD3F8983013F0020F06D0FEF7C8FB6A
:1021D000801B0228F4D90320DBE0A36A002B00F067
:1021E000D780022B27D00C2D00F0D7801A4B1A680D
:1021F00022F080721A601B6813F0006F04D1164A37
:10220000D36823F00303D360134AD36823F08873A1
:1022100023F48033D360FEF7A3FB04460E4B1B6808
:1022200013F0007F00F0A880FEF79AFB001B022845
:10223000F4D90320ADE0084BDB6803F00301E26A48
:1022400091420DD00C2D00F0A680034B1B6813F0BB
:10225000806F2FD001209CE00010024000700040F1
:1022600003F07002216B0139B2EB011FEAD103F4D4
:10227000FE42616BB2EB012FE4D103F07842A16B17
:10228000B2EBC16FDED103F4C001E26B5208013A38
:10229000B1EB425FD6D103F0C063226C5208013A21
:1022A000B3EB426FCED13E4B1B6813F0007F49D099
:1022B00000206EE03A4A136823F080731360FEF743
:1022C0004FFB0546364B1B6813F0007F06D0FEF728
:1022D00047FB401B0228F5D903205AE0304AD36857
:1022E00030491940E36A206B013843EA0013606B00
:1022F00043EA0023E06B4008013843EA4053206C76
:102300004008013843EA4063A06B43EAC0631943C5
:10231000D160136843F080731360D36843F0807317
:10232000D360FEF71DFB04461D4B1B6813F0007FB6
:1023300006D1FEF715FB001B0228F5D9032028E083
:10234000002026E0164B1A6842F080721A60DA68A4
:1023500042F08072DA60FEF703FB0446104B1B6804
:1023600013F0007F06D1FEF7FBFA031B022BF5D911
:1023700003200EE000200CE000200AE0012070475E
:10238000012006E0012004E0012002E0012000E03D
:10239000002003B0F0BD0120FBE70120F9E700BFFA
:1023A000001002408C809D01002800F0988070B5DC
:1023B0000C4605464E4B1B6803F007038B420BD2BD
:1023C0004B4A136823F007030B431360136803F0B1
:1023D00007038B4240F085802B6813F0010F39D042
:1023E0006B68032B09D0022B26D063BB414A1268CD
:1023F00012F0020F06D1012070E03E4A126812F07E
:10240000007F70D03B498A6822F0030213438B603F
:10241000FEF7A6FA0646374B9B6803F00C036A6882
:10242000B3EB820F16D0FEF79BFA801B41F2883384
:102430009842F0D9032051E02E4A126812F4003F6E
:10244000E0D101204AE02B4A126812F4806FD9D102
:10245000012043E02B6813F0020F06D0254A936851
:1024600023F0F003A9680B439360214B1B6803F032
:102470000703A3420AD91E4A136823F00703234324
:102480001360136803F00703A3422ED12B6813F0E7
:10249000040F06D0174A936823F4E063E9680B43FE
:1024A00093602B6813F0080F07D0124A936823F447
:1024B0006053296943EAC1039360FFF7E1FB0D4BC9
:1024C0009B68C3F303130C4AD35C03F01F03D8408B
:1024D0000A4B18600A4B1868FEF73CFA70BD0120E1
:1024E00070470120FAE70120F8E70120F6E700BF76
:1024F00000200240001002404CAD000808000020FF
:1025000004000020014B1868704700BF080000203D
:1025100008B5FFF7F7FF054B9B68C3F30223044A96
:10252000D35C03F01F03D84008BD00BF0010024079
:1025300044AD000808B5FFF7E5FF054B9B68C3F302
:10254000C223044AD35C03F01F03D84008BD00BF78
:102550000010024044AD00080F2303600B4B9A6843
:1025600002F0030242609A6802F0F00282609A6808
:1025700002F4E062C2609B68DB0803F4E06303617D
:10258000034B1B6803F007030B6070470010024009
:1025900000200240F8B504460D46594BDB6813F0A5
:1025A000030F18D0564BDB6803F003030268934215
:1025B00002D001263046F8BD002A00F09C80504B26
:1025C000DB68C3F3021301334268934201D0012652
:1025D000F0E7002619E00368022B55D0032B5AD0F0
:1025E000012B40F08A80464A126812F0020F5ED03A
:1025F0004348C26822F073026168013943EA01135B
:102600001343C3600026002ED4D13D4A136823F043
:1026100080631360FEF7A4F90746394B1B6813F07B
:10262000006F05D0FEF79CF9C31B022BF5D90326DA
:10263000002EBFD1002D3CD131490B6923F07843E6
:1026400023F4FE43A068E268D20642EA0022134364
:102650000B612B4A136843F080631360FEF780F927
:102660000546274B1B6813F0006F05D1FEF778F97C
:10267000401B0228F5D90326002E9BD1204A13695E
:10268000A1690B43136195E71D4A126812F4806F2C
:10269000AED101268EE71A4A126812F4003FA7D184
:1026A000174A126812F4802FA2D1012682E7012670
:1026B000A9E7012D0FD01248026922F0C06222F46E
:1026C000FE42A16863695B08013B5B0643EA0123A4
:1026D0001A430261BDE70A48026922F4C00222F4EB
:1026E000FE42A16823695B08013B5B0543EA0123C5
:1026F0001A430261ADE701265CE701265AE700BFF5
:10270000001002402DE9F04182B00446036813F442
:10271000006F26D0C36BB3F5000F06D0B3F5400FA2
:102720001DD09BB1012637461DE0AE4AD36843F465
:102730008033D3600027AB4AD2F8883023F44003BB
:10274000E16B0B43C2F8883000260CE00021043016
:10275000FFF720FF07460028EDD0064603E00027DC
:10276000E9E700263746236813F4003F6BD09D4B02
:102770009B6D13F0805F4CD19A4B9A6D42F0805262
:102780009A659B6D03F080530193019B4FF0010804
:10279000954A136843F480731360FEF7E1F8054629
:1027A000914B1B6813F4807F05D1FEF7D9F8401BCD
:1027B0000228F5D90327002F40D18A4BD3F8903057
:1027C00013F4407318D0226D9A4212D0854AD2F881
:1027D000903023F44073D2F8901041F48031C2F865
:1027E0009010D2F8901021F48031C2F89010C2F805
:1027F000903013F0010F0FD1002F40F0C980794ABB
:10280000D2F8903023F44073216D0B43C2F890301E
:1028100015E04FF00008BBE7FEF7A2F80546714B44
:10282000D3F8903013F0020FE6D1FEF799F8401B71
:1028300041F288339842F2D90327DDE73E46B8F1EA
:10284000000F40F0A780236813F0010F08D0654AFD
:10285000D2F8883023F00303216A0B43C2F8883092
:10286000236813F0020F08D05E4AD2F8883023F0B4
:102870000C03616A0B43C2F88830236813F0200F01
:1028800008D0584AD2F8883023F44063A16A0B4339
:10289000C2F88830236813F4007F08D0514AD2F878
:1028A000883023F44023616B0B43C2F888302368DF
:1028B00013F4806F08D04B4AD2F8883023F44013C9
:1028C000A16B0B43C2F88830236813F0400F08D087
:1028D000444AD2F8883023F44053E16A0B43C2F8EB
:1028E0008830236813F4807F08D03E4AD2F88830BD
:1028F00023F44033216B0B43C2F88830236813F470
:10290000005F0FD0374AD2F8883023F04063216C43
:102910000B43C2F88830236CB3F1006F40D0B3F1A1
:10292000806F42D0236813F4802F0FD02D4AD2F845
:10293000883023F04063616C0B43C2F88830636CCD
:10294000B3F1006F39D0B3F1806F3BD0236813F43B
:10295000804F0CD0234AD2F8883023F04053A16C2A
:102960000B43C2F88830A36CB3F1805F32D0236888
:1029700013F4004F08D01B4AD2F8883023F080436C
:10298000E16C0B43C2F88830304602B0BDE8F081FC
:102990003E4654E7134A936D23F08053936552E704
:1029A000D36843F48013D360BCE70121201DFFF7F7
:1029B000F1FD0028B6D00646B4E7D36843F480138F
:1029C000D360C3E70121201DFFF7E4FD0028BDD03F
:1029D0000646BBE70221201DFFF7DCFD0028C6D01C
:1029E0000646C4E70010024000700040024A136827
:1029F00043F004031360704700100240704700006A
:102A000030B585B00446026851689368C3F38010FE
:102A100013F0400F05D113F0010F02D011F0400F59
:102A200068D113F0020F02D011F0800F66D1C3F30A
:102A3000401513F0200F03D110B913F4807F60D03C
:102A400011F0200F5DD070B194F85D0003285AD0CA
:102A5000206E40F00400206600200090D0680090B6
:102A600090680090009865B1206E40F001002066EB
:102A70000020029090680290106820F040001060E2
:102A8000029A13F4807F09D0236E43F00803236673
:102A90000023039323689B680393039B236E002BFF
:102AA0002FD02268536823F0E0035360012384F899
:102AB0005D3011F0030F2ED02268536823F003031A
:102AC0005360A36D4BB1164A9A63A06DFEF7F6FEF4
:102AD00018B1236E43F040032366636D8BB1104A37
:102AE0009A63606DFEF7EAFE58B1236E43F040032F
:102AF000236606E0E36C2046984702E0236D2046FB
:102B0000984705B030BD00230193D36801939368C3
:102B10000193019BF5E72046FFF770FFF1E700BF47
:102B2000252B000808B5806A0023A0F84630C3872B
:102B3000FFF764FF08BD704703681A4A904202D04D
:102B4000B0F1804F03D123F070034A681343154A54
:102B500090420AD0B0F1804F07D002F5A0529042C7
:102B600003D002F58062904203D123F44073CA6817
:102B7000134323F080034A69134303608B68C362E5
:102B80000B688362074B984207D003F5A053984225
:102B900003D003F58063984201D10B6903630123DD
:102BA00043617047002C014060B310B5044690F8B3
:102BB0003D3013B3022384F83D30214651F8040B15
:102BC000FFF7BAFF012384F8483084F83E3084F8D8
:102BD0003F3084F8403084F8413084F8423084F843
:102BE000433084F8443084F8453084F8463084F823
:102BF000473084F83D30002010BD80F83C30FFF7AE
:102C00009AFFD7E70120704701F01F014FF0010C38
:102C10000CFA01FC036A23EA0C030362036A8A408C
:102C2000134303627047000010B50446102928D8EA
:102C3000DFE801F0092727270F2727271527272750
:102C40001B272727210090F83E30013B18BF0123A6
:102C50001CE090F83F30013B18BF012316E090F8CC
:102C60004030013B18BF012310E090F84130013B98
:102C700018BF01230AE090F84230013B18BF01233E
:102C800004E090F84330013B18BF0123002B56D1DC
:102C900010291ED8DFE801F0091D1D1D0D1D1D1D89
:102CA000111D1D1D151D1D1D1900022384F83E3028
:102CB00012E0022384F83F300EE0022384F8403013
:102CC0000AE0022384F8413006E0022384F842300F
:102CD00002E0022384F8433001222068FFF794FFCA
:102CE00023681A4A934207D002F5A052934203D0B8
:102CF00002F58062934203D15A6C42F400425A6456
:102D00002368124A93420CD0B3F1804F09D002F5E8
:102D1000A052934205D01A6842F001021A600020C6
:102D20000EE099680A4A0A40062A0AD0B2F5803FA6
:102D300009D01A6842F001021A60002000E0012068
:102D400010BD0020FCE70020FAE700BF002C014086
:102D5000070001007047000010B50446836802694F
:102D6000134342691343C269134301680868894ADF
:102D700002401A430A602268536823F44053E16812
:102D80000B435360A1692268834B9A4201D0236AA6
:102D90001943936823F430630B43936023687F4A9D
:102DA000934218D07E4A934229D07B4A93423FD027
:102DB000102279498B425CD0E069B0F5004F00F0F9
:102DC0008880082A00F2DC80DFE802F0B0C3AEDAC7
:102DD000C6DADADAC90002F55842D2F8882002F0E1
:102DE0000302032A09D8DFE802F0020438060122B0
:102DF000DFE70422DDE70822DBE71022D9E702F54E
:102E0000E632D2F8882002F00C020C2A0ED8DFE855
:102E100002F0070D0D0D090D0D0D260D0D0D0B000A
:102E20000022C6E70422C4E70822C2E71022C0E756
:102E300002F5C832D2F8882002F44062B2F5006F81
:102E40000FD005D87AB1B2F5806F0ED10422B0E769
:102E5000B2F5406F0BD10822ABE70222A9E70222AC
:102E6000A7E70222A5E70022A3E71022A1E710228C
:102E70009FE7082A76D8DFE802F0087510750D750F
:102E8000757505004FF4004008E0FFF741FB28B9D5
:102E9000002076E0FEF7F4FEF9E74248626802EBB4
:102EA0004203834260D8B0EB023F5FD8010E0002BC
:102EB0005308C0184FF0000341F1000106F008FD6F
:102EC000A0F54072384B9A4252D82368D86000204F
:102ED00057E0082A4ED8DFE802F00721054D244DBF
:102EE0004D4D0B002F4803E0FFF712FB002843D0A5
:102EF0006268530803EB4003B3FBF2F39BB2A3F108
:102F000010014FF6EF72914238D823F00F02C3F34D
:102F1000420313432268D360002032E0FFF70AFB2C
:102F2000E4E7FEF7ADFEE1E71E4802E0FFF7F0FA46
:102F300058B3636800EB5300B0FBF3F080B2A0F12C
:102F400010024FF6EF739A4221D82368D860002010
:102F500017E0FFF7EFFAEBE7FEF792FEE8E74FF432
:102F60000040E6E701200CE001200AE0012008E033
:102F7000012006E0012004E0002002E0012000E042
:102F8000012000236366A36610BD0020F9E701203D
:102F9000F7E700BFF369FFEF008000400038014011
:102FA000004400400024F400FFFC0F00436A13F0CB
:102FB000010F06D00268536823F40033816A0B4383
:102FC0005360436A13F0020F06D00268536823F47B
:102FD0008033C16A0B435360436A13F0040F06D079
:102FE0000268536823F48023016B0B435360436AE8
:102FF00013F0080F06D00268536823F40043416BB6
:103000000B435360436A13F0100F06D002689368B5
:1030100023F48053816B0B439360436A13F0200FBA
:1030200006D00268936823F40053C16B0B4393608E
:10303000436A13F0400F0AD00268536823F48013E8
:10304000016C0B435360036CB3F5801F0BD0436AD4
:1030500013F0800F06D00268536823F40023816CBC
:103060000B43536070470268536823F4C003416CFC
:103070000B435360EBE72DE9F84305460F46164630
:103080009946DDF820802B68DC6937EA04040CBF20
:1030900001240024B4423DD1B8F1FF3FF3D0FDF745
:1030A0005FFCA0EB0900404522D8B8F1000F1FD00B
:1030B0002B681A6812F0040FE5D0DA6912F4006F79
:1030C000E1D04FF400621A622A68136823F4D073C7
:1030D00013602A68936823F0010393602023AB6791
:1030E000EB67C5F88030002385F87430032012E0C8
:1030F0002A68136823F4D07313602A68936823F056
:10310000010393602023AB67EB67002385F87430DD
:10311000032000E00020BDE8F88330B583B004460A
:103120000023C0F88030FDF71BFC054622681268BA
:1031300012F0080F0DD123681B6813F0040F16D18D
:103140002023A367E3670020206684F8740003B09F
:1031500030BD6FF07E430093034600224FF4001110
:103160002046FFF788FF0028E5D00320EFE76FF047
:103170007E4300932B4600224FF480012046FFF748
:103180007AFF0028DCD00320E1E768B310B50446DD
:10319000836F03B32423A3672268136823F001031A
:1031A00013602046FFF7D8FD012813D0636ABBB92E
:1031B0002268536823F4904353602268936823F095
:1031C0002A0393602268136843F0010313602046CA
:1031D000FFF7A3FF10BD80F87430FFF7BBFDD9E700
:1031E0002046FFF7E3FEE3E70120704790F87430D4
:1031F000012B0CD0012380F874300268936843F4EB
:1032000000039360002380F8743018467047022052
:10321000704790F87430012B0CD0012380F8743083
:103220000268936823F400039360002380F87430ED
:10323000184670470220704790F87430012B0CD06C
:10324000012380F874300268136843F002031360AE
:10325000002380F87430184670470220704790F8B9
:103260007430012B0CD0012380F87430026813688D
:1032700023F002031360002380F87430184670476F
:10328000022070470F4B104A9A60D3F8882042F40E
:103290007002C3F888200D4B1A6842F001021A60D0
:1032A000002199601A6822F0A85222F410221A60B4
:1032B0004FF48052DA601A6822F480221A60996111
:1032C000704700BF00ED00E0000000080010024061
:1032D0002F4B1B6813F0080F16D12D4BD3F89430E9
:1032E000C3F303232B4A52F82320294B9B6803F096
:1032F0000C030C2B3ED8DFE803F00C3D3D3D0F3DA9
:103300003D3D133D3D3D1700214B1B68C3F30313A7
:10331000E8E7214B1A602FE01F4B204A1A602BE090
:103320001D4B1F4A1A6027E0194BD96801F00301B1
:10333000DB68C3F302130133022904D0032915D03B
:10334000B2FBF3F202E0154AB2FBF3F21049CB688C
:10335000C3F3062302FB03F3CA68C2F341620132DE
:103360005200B3FBF2F30C4A136005E00C4AB2FBC7
:10337000F3F2EBE7084B1A60054B9B68C3F30313AA
:10338000084AD15C044A1368CB401360704700BF01
:103390000010024014AD0008080000200024F400D2
:1033A00000127A004CAD000808B503681B690122C1
:1033B0000021984708BD08B503681B690022114623
:1033C000984708BD6FF01500704780F8341300204F
:1033D0007047A0F1E400F8E790F834037047A0F1DB
:1033E000E400F9E700207047A0F1E400FFF7FABF1E
:1033F00001207047A0F1E400FFF7FABF6FF01C0056
:103400007047A0F1E400FFF7F9BF000010B50446D3
:103410000B4B03604833C0F8E430D0F8380310B1E8
:1034200003685B68984704F5407003F099F9054B11
:10343000C4F8E430204600F041FC204610BD00BF37
:1034400064AD000898AE0008A0F1E400FFF7DEBF0D
:1034500010B50446FFF7DAFF4FF44F71204603F032
:1034600000F9204610BDA0F1E400FFF7F1BFD0F84D
:10347000380328B108B500F044FB18B1012008BD9D
:10348000002070470020FAE708B500F5407003F00F
:103490002DF908BD08B500F5407003F045F908BDE9
:1034A00030B587B00546002405940194009402AB22
:1034B0000ECB00F0B3FB85F8364307B030BD30B516
:1034C00087B004460025059501230193009502ABC2
:1034D0000ECB00F0A3FB84F8355307B030BD10B518
:1034E000044602F081FAD4F80021D4F804319A425B
:1034F00004D0002402F090FA204610BD94F8083160
:103500000BB10024F6E70124F4E710B50446FFF7F9
:10351000BBFF08E02046FFF7BDFF012003F0A5F840
:103520002046FFF7B1FF04F5FA70FFF7D8FF002837
:10353000F0D02046FFF7AEFF002010BDA0F1E40060
:10354000FFF7E3BF38B50446E830FFF7C8FF40B1E6
:1035500000252046FFF78BFF28B145F4005528468B
:1035600038BD0125F5E794F8FC32002BF7D145F082
:103570001005F4E7A0F1E400FFF7E4BF86B084464D
:10358000CDE900230022026042608260C2600391A4
:10359000DDE9000106AA02E90900054BCCF80C3070
:1035A00012E907008CE80700604606B0704700BFCC
:1035B000DF3A000810B582B00446CDE90023DDE90A
:1035C0000023FFF7DBFF204602B010BD08B5C3683B
:1035D0000BB1984708BD4FF4FD720249024802F052
:1035E0004BF900BFCA9F0008D89F000884B038B5C7
:1035F000054605AC84E80E0002F0F6F905F5497CB5
:1036000094E80F008CE80F00D5F830332BB147F663
:10361000FF712846FFF796FF28B902F0FDF9BDE8D3
:10362000384004B0704705F54970FFF7CFFFF4E765
:10363000A0F1E400FFF7DABF08B5D0F830331BB1D2
:1036400000F54970FFF7C2FF08BD00008818B0F50B
:10365000807F03D8B0F5807F07D0704708B54FF45E
:10366000AF720349034802F007F90020704700BF1A
:103670002AA000083CA0000838B504460D4602F018
:10368000B3F9D4F800112B78635401222046FFF7D8
:10369000DDFFC4F8000194F8083123B1C4F8040137
:1036A00002F0BAF938BDD4F804319842F8D10123B8
:1036B00084F80831F4E770B582B0044600F1E806FA
:1036C0003046FFF70CFF054609E0204600F02AFBD4
:1036D0008DF807000DF107013046FFF7CDFF94F894
:1036E000F03123B9204600F077FA0028EDD194F8A4
:1036F000363313B194F8F03113B92DB902B070BD5F
:103700002046FFF7CDFEF8E73046FFF7E8FE002839
:10371000F4D12046FFF790FFF0E7000070B588B0C5
:10372000044602F061F994F8BC3013B194F83633D2
:103730001BB102F071F908B070BD2046FFF7BBFF66
:1037400094F8F031002BF4D10B4B02930026039632
:1037500004AD02AB0CCB21462846FFF72BFF0196A8
:10376000079B009395E80E00204600F057FA0123CE
:1037700084F83633DDE700BFB736000838B50446B5
:1037800000F0FCFA144BC4F8E430144B23604833C7
:10379000C4F8E4300025C4F8E851C4F8EC5184F8CA
:1037A000F051C4F8F452C4F8F85284F8FC5204F50D
:1037B000407002F093FFC4F83053012384F834338F
:1037C00084F8355384F83653C4F838532046FFF74D
:1037D000A5FF204638BD00BF98AE000864AD0008C4
:1037E00038B504460D46FFF74FFE2946204600F047
:1037F00036FB2046FFF792FF2046FFF74BFE0020E6
:1038000038BDA0F1E400FFF7EBBF70B504460D46EC
:1038100002F0EAF8D4F80021D4F80431934211D030
:10382000E35C2B700122D4F804112046FFF70EFF51
:10383000C4F80401002384F80831012602F0ECF8F2
:10384000304670BD94F80861002EF7D0E8E730B537
:1038500083B0044690F8FC5204E09DF8071020461F
:1038600000F065FA204600F0C8F938B10DF1070103
:1038700004F5FA70FFF7C9FF0028EED194F835334C
:103880002BB915B194F8FC325BB103B030BD04F52F
:10389000FA70FFF724FE0028F3D02046FFF70FFE52
:1038A000EFE72046FFF7E3FD0028EED12046FFF7C3
:1038B000C3FEEAE7F8B505460C46174602E028467F
:1038C000FFF7C5FF05F5FA70FFF709FE0028F6D0EF
:1038D000002605E014F8011B284600F028FA0136FE
:1038E000BE42F7D33846F8BD70B588B0044602F042
:1038F0007BF894F8BD3013B194F835331BB102F066
:103900008BF808B070BD2046FFF7A1FF04F5FA70F0
:10391000FFF7E5FD0028F2D10B4B02930023039340
:1039200004AD02AB0CCB21462846FFF743FE01262F
:103930000196079B009395E80E00204600F06EF973
:1039400084F83563DBE700BF4F3800080AB9002070
:1039500070472DE9F04105460E46904602F03FF8CB
:1039600030B1424631462846FFF7A4FFBDE8F0815A
:103970002846FFF789FD002413E095F834332BB374
:103980002846FFF787FD012002F06FFE2846FFF76B
:103990007BFD95F8FC32002BF2D108E02846FFF7BA
:1039A000A3FF444512D295F8FC32002BE5D14445E3
:1039B000F4D295F8FC32002BF0D1771C314605F596
:1039C000FA70FFF759FE01343E46F0E72846FFF74C
:1039D00061FD0CB12046C9E76FF00A00C6E7A0F10F
:1039E000E400FFF7B3BF38B504460D46FFF74CFDC2
:1039F0002946204600F089FA2046FFF775FF204649
:103A0000FFF748FD002038BDA0F1E400FFF7EBBF51
:103A10000AB9002070472DE9F84304460E46904647
:103A2000FFF732FD04F1E8052846FFF758FD90B195
:103A300094F834334BB12046FFF72CFD012002F0FF
:103A400014FE2046FFF720FDECE72046FFF722FD9D
:103A50006FF00A0016E0002747450CD22846FFF712
:103A60003EFD40B906F1010931462846FFF7CDFE7B
:103A700001374E46F0E72046FFF750FE2046FFF79D
:103A800009FD3846BDE8F883A0F1E400FFF7C0BFA8
:103A900000B585B0126803C9CDE9000104AB03E9A4
:103AA0000300084611F0010F06D1029B02EB6000F3
:103AB000984705B05DF804FB4B10D158029BCB58DA
:103AC000F4E708B50A4601464FF00000FFF7E0FFB3
:103AD00008BD08B501460430FFF7F3FF08BD08B57F
:103AE000FFF7F7FF08BD10B50446002303604360ED
:103AF0008360C36003614361836100F024FB20465F
:103B000010BD83681A6843681A4201D001207047CB
:103B1000002070477047704730B587B042688568AD
:103B20000C3003C8CDE90001A2B10446A0B102AB3C
:103B3000DDE9000183E8030006AB03E90300084662
:103B400011F0010F02D04B10D3581C59294602EB3B
:103B50006000A04707B030BD11F0010FFAD0E6E7D2
:103B600030B585B0044600F14C05D0F8C4102846A5
:103B700000F07CFDD4F8D820A2B1D4F8C830EBB165
:103B800004F1DC0103C9CDE9000104AB03E9030042
:103B9000084611F0010F17D1029B94F8D01004EBE6
:103BA00060009847D4F8B8102846FDF7B1FB2246CC
:103BB00008492846FCF776FC05B030BDD4F8CC3077
:103BC00013F0010FEED0DBE74B10E158029BCB580E
:103BD000E3E700BF4D3E000838B50446054655F8FA
:103BE0004C3B1B6898472846FDF714FB05462368A5
:103BF0005B6820469847284638BD38B504460546D8
:103C000055F84C3B1B6898472846FDF71BFB0546BB
:103C100023685B6820469847284638BD84B070B555
:103C2000044605AD85E80E009DF8245003681B6826
:103C3000984794F8BC3003B19DB194F8BD300BB1F6
:103C4000012D0ED004EB0515983505AB0FCB85E89B
:103C50000F0023685B6820469847BDE8704004B0B9
:103C6000704701F0C1FE089BC3B12B019833234478
:103C7000DB6883B104EB051C0CF1980C05AB0FCB92
:103C80008CE80F000122294604F14C00FCF716FCD9
:103C900001F0C2FEDDE702F0FFF9EBE72E019836F6
:103CA0002644F3680BB102F013FA0022F2602946B1
:103CB00004F14C00FCF702FCEAE7000030B587B0E5
:103CC0000446124B036000250AE000230593EAB284
:103CD0000192009302AB0ECB2046FFF79FFF013508
:103CE000012DF2DD94F8BC3013B994F8BD301BB14E
:103CF00004F14C00FDF71CFA206A18B101F0BCFA7F
:103D000000232362204607B030BD00BFFCAD000891
:103D100010B50446FFF7D2FFE421204602F0A1FCD3
:103D2000204610BD08B54C30FCF732FC08BD10B57C
:103D30000C464C30FCF79EFC204610BD08B54C30BC
:103D4000FDF7F6F908BD000010B584B003460C4637
:103D500000220292039204A911E90300CDE90001B7
:103D60005C609A6003F10C0E8EE803000249196052
:103D70005A61184604B010BD193B0008F0B585B073
:103D800004460E4617462F4B03602F4B4360002519
:103D9000856001460C30FFF7D7FF84F8245084F883
:103DA00025506563656484F8485084F849504C2276
:103DB0002946A01805F006F904F19800012303E054
:103DC0000022C260013B1030002BF9DAC4F8B87051
:103DD000012384F8BC3084F8BD30B6F90430A4F86F
:103DE000BE30B6F90C30A4F8C030C4F8C46000236B
:103DF000C4F8C830C4F8CC3084F8D0304FF6FF7225
:103E0000A4F8D220A4F8D420C4F8D830C4F8DC3008
:103E1000C4F8E030221D92E80300CDE9000104ABB4
:103E200003E90300084611F0010F06D1029B04EBE1
:103E300060009847204605B0F0BD4B10E258029B49
:103E4000D358F4E7FCAD0008613B000808B5090150
:103E500098310844C3680BB1FFF7B8FB08BD30B513
:103E600085B004460D4603681B68984794F8BC303B
:103E7000AB422CD08DB394F8BD307BB9221D92E8B3
:103E80000300CDE9000104AB03E90300084611F08B
:103E9000010F31D1029B04EB6000984701F0A4FDB3
:103EA000D4F8A4305BB104F19800FFF78FFB02F067
:103EB000F3F80122002104F14C00FCF7FFFA01F0B5
:103EC000ABFD84F8BC5015B994F8BD30CBB1236874
:103ED0005B682046984705B030BD01F085FD0022A3
:103EE000114604F14C00FCF7E9FAD4F8A430002B99
:103EF000E5D002F0EDF8E2E74B10E258029BD35810
:103F0000C9E72046FFF71AFFE1E730B585B0044660
:103F10000D4603681B68984794F8BD30AB422CD01F
:103F20008DB394F8BC307BB9221D92E80300CDE933
:103F3000000104AB03E90300084611F0010F31D181
:103F4000029B04EB6000984701F04EFDD4F8B430BA
:103F50005BB104F1A800FFF739FB02F09DF80122E4
:103F6000114604F14C00FCF7A9FA01F055FD84F864
:103F7000BD5015B994F8BC30CBB123685B682046BE
:103F8000984705B030BD01F02FFD0022012104F15A
:103F90004C00FCF793FAD4F8B430002BE5D002F0D3
:103FA00097F8E2E74B10E258029BD358C9E7204646
:103FB000FFF7C4FEE1E710B50446086800F037FBE0
:103FC000C4E90001204610BD30B40C68496815688A
:103FD0005268641B61EB02010460416030BC7047B1
:103FE00010B584B0044691ED007B8DED007BD2E9E5
:103FF0000023CDE9022302AA6946FFF7E5FF204628
:1040000004B010BD08B503681B68984708BD10B51B
:1040100082B00068049C009400F0D8FA02B010BD91
:1040200010B504460846074B236000220023C4E96C
:104030000223002323616361A161034900F087FA31
:10404000204610BD14AE00080540000800B583B03E
:10405000009000F108011830FFF7D9FF03B05DF8B8
:1040600004FB08B500F10801806900F0C6FA08BD3C
:104070000020704709B1002070476FF018007047AA
:104080000120704784B001A880E80E0004B070479A
:10409000EFF3108000F0010080F001007047000095
:1040A00008B5FFF7F5FF72B6044B1B7823B9044B34
:1040B0001870024B01221A7008BD00BF28050020AD
:1040C0002905002008B5FFF7E3FF38B9064B0022A9
:1040D0001A70064B1B7803B162B608BD362204493C
:1040E000044801F0C9FB00BF280500202905002075
:1040F00087A00008A4A00008014B1878704700BFF3
:1041000028050020F8B504460D4617461E46FCF764
:10411000E9FBB5F1FF3F0BD05EB1A36822681A60DE
:1041200001212046FCF708FC39462046FCF7FEFB3F
:10413000F8BDE36822681A60F2E708B5134600226A
:10414000FFF7E0FF08BD08B50022FFF7F6FF08BD46
:104150000048704718AE000808B5034B1B680BB148
:104160000248984708BD00BF0C00002018AE0008A8
:10417000884205D0B0F1FF3F0CD0B1F1FF3F00D134
:10418000704700B583B000230093024602490348FC
:1041900001F0F0FD08467047C0A000083001018022
:1041A00000E00C31B1F90030B3F1FF3F03D083429E
:1041B000F7D1486870474FF0FF307047B0F1FF3FCC
:1041C00010D010B582B00446FFF7EAFFB0F1FF3F10
:1041D00001D002B010BD00230093224603490448D9
:1041E00001F0C8FD4FF0FF30704700BFD4A00008B9
:1041F0003001018000E00C31B1F90030B3F1FF3F34
:1042000003D08342F7D1886870474FF0FF30704782
:1042100002461F20002805DB01238340934203D080
:104220000138F7E74FF0FF30704743681960704777
:1042300070B5446894F8323093BB03685B68984764
:10424000236A83422CD0C31A226913402062A268D9
:10425000A3FB02C394F93420D2B1656A15EB0C05B7
:1042600043F10001002A1CDBC2F12000A2F120036F
:1042700025FA02FC01FA00F04CEA000C21FA03F3E3
:104280004CEA030C21FA02F30CFA02F2AA1A626257
:10429000A26AE16A1CEB020243EB0103A262E36241
:1042A00070BDE66832460023284605F011FB0B4638
:1042B000844606FB10556562EAE770B54468A16A5A
:1042C000E06A521A63EB00036569A069E1699042F4
:1042D00099410BD3E668A6FB020106FB031194F992
:1042E000336046B90246AA4200D81546236A1D44E7
:1042F0002069284070BDA268531E181841F10001C2
:10430000002E0BDBC6F12003A6F12002F04001FADB
:1043100003F3184321FA02F20243E4E7002305F015
:10432000D7FA0246DFE7824209D98A4203D9884296
:1043300003D9012070470120704700207047884250
:1043400003D98A4203D9002070470020704701201A
:104350007047000070B545682B6B23F07F4323F056
:10436000FF0303B170BD0446FFF762FF6B6843B300
:10437000A86AE96A1A685B689042994117D2204698
:10438000FFF79BFF06462B6A834214D023681B6904
:10439000984723685B68984701463246286AFFF7CA
:1043A000C2FF0028DED023685B699847DAE72368FC
:1043B0005B699847D6E740F2C9120649064801F002
:1043C0005BFA286A6B6918442A6923681B691040E4
:1043D0009847C7E72BA1000840A10008436893F85D
:1043E0003020002A40F088802DE9F04182B0044658
:1043F00093F83230002B6BD103681B689847236811
:10440000DB69984707460668002E64D032463B4B6E
:104410001D46B2FBF3F103FB11232A46002BF7D113
:104420006268364BB3FBF5F39360D4F80480D8F898
:104430000800FFF7EDFE88F833006368B6FBF5F679
:10444000DE606568E868FFF7E3FE85F834007A68A7
:10445000111F1C2946D8202A4BD001239340013B31
:1044600062681361626807238B40536166687069F4
:104470000025B168A0FB0101F268801841F100013C
:1044800001382B4641F1FF3105F022FAC6E9060159
:1044900063681D6063685D6023685B686668984751
:1044A000306263685D62636800200021C3E90A012D
:1044B000636883F83150636883F83250636801227F
:1044C00083F830202046FFF7B3FE2046FFF742FF77
:1044D00002B0BDE8F0810022009213460849094865
:1044E00001F048FC0022009213460749074801F0FA
:1044F00041FC4FF0FF33B3E7704700BF40420F006D
:1045000064A100080E01048080A100080501048058
:10451000F8B546680A604B60069C8C60746800259C
:1045200001E02546E4682CB12768BA42676873EB5E
:10453000070CF6D2CC6045B1E960B46AF16A9442E6
:10454000994101D3FFF706FFF8BD7160FAE738B56E
:1045500004460D46FFF742FF01F046FA2946204681
:10456000FFF763FE01F058FA38BD70B5054601F05B
:104570003BFA6C682B68DB68984794F83230CBB90B
:10458000012384F831306368BBB12846FFF750FE41
:10459000636818685968E26AA66A86428A410CD341
:1045A0006A685268DB6863602368002BEBD0906810
:1045B0009847E8E701F030FA07E0002384F831304B
:1045C0002846FFF7C7FE01F027FA70BDF0B583B0AB
:1045D00004460D4617461E4601F006FA2046FFF730
:1045E00027FE089B00933A46334629462046FFF7AC
:1045F0008FFF01F011FA03B0F0BD38B505460C4647
:1046000001F0F2F96A685368A34205D063B1DA6831
:10461000A24207D01346F9E7E36853602846FFF744
:1046200099FE01E0E268DA6001F0F6F938BD38B5CC
:104630000446FFF7D3FE01F0D7F92046FFF7F8FD57
:104640006368D3E90A4501F0E7F92046294638BDF9
:104650007047000008B5034B1B680BB10248984730
:1046600008BD00BF1000002044AE000808B5B1F935
:104670000C20B1F90410FCF75BFF08BD08B5BFF3CF
:104680005F8F1E4BD3F89030C3F3072013F47C4F99
:1046900004D00023194AC2F894300BE03B22184999
:1046A000184801F0E9F8154AC2F898300021C2F81C
:1046B000A01001338342F6D3104B1022C3F89C2084
:1046C000114AC3F8A0201322C3F89C200F4AC3F854
:1046D000A0201122C3F89C200D4AC3F8A0200D4A47
:1046E000C3F89C200C4AC3F8A0200722C3F89420EA
:1046F000BFF34F8FBFF36F8F08BD00BF00ED00E029
:10470000F7A1000808A2000839F0020639070213D1
:104710003FF50B131200008039000213102300F044
:1047200007B8202300F004B8302300F001B840237C
:104730009C46F0B404AE7546E80801D3EFF3098651
:104740000E4F0FCE0FC70FBC0FC74046494652460B
:104750005B460FC71DCE3100A60A00D304316E0997
:1047600000D248311FC7EFF309806946EFF3148682
:1047700063C76046014900F08DF800BFA005002026
:1047800070B584B0002407E0344B53F82420214650
:10479000334801F009F901340C2CF5DD2F498B6CFD
:1047A00002934B6C01930B6C0093CB6B8A6B496B40
:1047B0002C4801F0F9F82C4C21682C4801F0F4F851
:1047C000E16AA26AA36AA06A000C256BE66B0296F6
:1047D00001950090C3F30723D2B2254801F0E4F815
:1047E000A36A13F0800F15D11F4B9B6A13F4004F7F
:1047F00015D11A4BDB6C13F0080F1AD01D4801F0CD
:10480000D3F8164B1B6D13F0010F0ED01A4801F0B0
:10481000CBF814E0616B194801F0C6F8E4E7124BDD
:10482000996B174801F0C0F8E3E7164801F0BCF8AF
:1048300005E0154801F0B8F8124801F0B5F8074B4B
:10484000DB6C13F0040F04D0104801F0ADF804B095
:1048500070BD0F4801F0A8F8F9E700BFA0050020DF
:1048600018A2000828A2000800ED00E078A20008C5
:1048700088A20008F8A2000808A30008D8A200082F
:10488000E8A2000818A300082CA300083CA3000815
:1048900048A3000800B583B005460C461E4B4FF0F8
:1048A000010CD3E84FEFC3E842CF5FFA8EFE002A37
:1048B000F4D1BEF1000F07D000250023009322465B
:1048C0001649284601F056FA154801F06DF8302DCA
:1048D00013D0402D16D0202D19D1124801F064F8C4
:1048E000114D124801F060F8FFF74AFF104801F03F
:1048F0005BF8094B00221A70DFE70E4801F054F80C
:104900000D4DEEE70D4801F04FF80D4DE9E70D486C
:1049100001F04AF80C4DE4E76D060020E0A3000822
:1049200054A3000880A300083E01FF80B4A3000840
:10493000C0A3000890A300083F01FF809CA30008CB
:104940004001FF80A8A300083D01FF8084460020AD
:1049500007E00A6802EB8202303B03EB42030B6084
:1049600001301CF80030A3F13002D2B2092AF0D98C
:10497000704738B5144612686FF0004C624517D284
:10498000049D75B12946184604F0ECF9B0F1FF3FDB
:1049900003D02368013323600AE04FF0FF33236024
:1049A00006E010B18A4200D28354236801332360A9
:1049B00038BD00002DE9F04F8BB005460E46174676
:1049C000149B15999DF858E0DDF85C809DF860B067
:1049D000DDF86490002204920592069207920892F4
:1049E0000992BBF1000F11D04FF0300ABEF1010F58
:1049F0000FD0BEF1040F17D00022029253EA010239
:104A00007ED130238DF8103001247FE04FF0200A52
:104A1000ECE7002902DB00220292EFE75B4261EB48
:104A2000410101220292E9E701220292E6E703F046
:104A30000F02BEF1020F0BD05448805C04F1280233
:104A40006A4402F8180C1B0943EA0173090923E0C0
:104A50004F48805C04F128026A4402F8180CF2E71F
:104A6000012225E002444B48A0FB02CA2AF0030CB5
:104A70000CEB9A0CA2EB0C029A1A61F100034FF0B6
:104A8000CC3102FB01F100FB0311A2FB0020014429
:104A9000520842EAC1734908013453EA010233D093
:104AA000AEF10202D2B2012AC1D900225818D7D2DF
:104AB0001044384AA2FB00CA2AF0030C0CEB9A0CF3
:104AC000A0EB0C00181A61F1000A4FF0CC3C0CFB73
:104AD00000FC02FB0ACCA0FB02208444520842EAFC
:104AE000CC7202EB8202A3EB4202303204F12800C6
:104AF000684400F8182C00205A18B3D30120B1E7FD
:104B00000024CDF80CA0C8E7DDF80CA0029B1BB177
:104B1000BBF1000F18D10134444528DB029B1BB1C7
:104B2000BBF1000F26D0013C002C2CDD013C04F130
:104B300028036B4413F8183CCDF800903A463146F0
:104B40002846FFF716FFEFE7CDF800902D233A46F1
:104B500031462846FFF70DFFDDE7CDF800905346BC
:104B60003A4631462846FFF704FF08F1FF3844452E
:104B7000F3DBD3E7CDF800902D233A4631462846A3
:104B8000FFF7F7FECFE70BB0BDE8F08F70AE00087F
:104B900080AE0008CDCCCCCC2DE9F04F8DB0814655
:104BA00007910A92189E9DF868B0DDE9160104F09D
:104BB000A7FE884607468A466FF000439E421CD0F7
:104BC000002E7FD1414604F0CDFD02460B46DDE9C3
:104BD000160104F03DFC02460B46CDE916230022E7
:104BE000654B04F06BFE002800F08480013748F12B
:104BF000000A002308930B9344E00626E0E7AB008D
:104C000043EA9473A200141945EB030524196D417E
:104C100001318E42F3DC414604F0A4FD02460B460E
:104C2000DDE9160104F014FCCDE90801204629460F
:104C300004F098FD02460B46DDE9080104F0DAFABB
:104C4000CDE9080100220023DDE9160104F018FE79
:104C500000283BD10022484BDDE9080104F0FAFBB3
:104C600004F04EFE08900B91A042A94105DB0137EC
:104C700048F1000A002308930B93731C199AD31A66
:104C8000199345D457EA0A0307D100220023DDE92E
:104C9000160104F0F5FD002841D11B9B0593CDF8CA
:104CA00010B0199B0393012302930097CDF804A041
:104CB0000A9A07994846FFF77DFE002E40D10DB0B5
:104CC000BDE8F08F002101240D46A2E7DDE90823AD
:104CD0000020294904F0BCFB04F012FE08900B915F
:104CE000A042A941C9DB013F68F1000A00230893F3
:104CF0000B93C2E70022214BDDE9160104F0C0FD51
:104D000048B1013F68F1000A002308930B93B9E70B
:104D100000231993B6E7002308930B93B2E71B9B7C
:104D20000593CDF810B0199B0393042302930097C9
:104D3000CDF804A00A9A07994846FFF73BFEBCE766
:104D40001B9B00932E230A9D2A46079C214648461A
:104D5000FFF70FFE1B9B059301230493039600238B
:104D60000293089B00930B9B01932A4621464846D9
:104D7000FFF720FEA3E700BF0000E03F0000E0BF18
:104D80002DE9F04383B080460F4616461C460A9D27
:104D9000DDF82C9008E0CDF80090324639464046C8
:104DA000FFF7E7FD0134013D23780BB1002DF2D16F
:104DB00003B0BDE8F0832DE9F04186B004460D460E
:104DC00016461F46DDF83080CDF800803023FFF70F
:104DD000D0FDCDF800807823324629462046FFF7E3
:104DE000C8FDCDF81480002304930393032302939A
:104DF000FB1700970193324629462046FFF7DAFD5C
:104E000006B0BDE8F08100002DE9F04F8DB00793AA
:104E1000DDF858A000230B93002A00F00E82804694
:104E20000E4614469942C0F2088219B14E1E0693EE
:104E300000255DE101230693FAE7781C079B043304
:104E400007934FF0000B77E10137E35D302BFBD088
:104E50004FF0010B6BE1221852782A2A40F073813F
:104E60000230079B1A1D07921B680A936EE1471CCC
:104E700000230A930AA9E019FFF768FD384465E1A9
:104E800022185278682A40F06581722207E02218C1
:104E900052786C2A40F06181822200E0002202F008
:104EA0000307074414F80790A9F14603322B00F2D8
:104EB0000A81DFE813F0C500C500080108010801F8
:104EC000080108010801080108010801080108019A
:104ED000080108010801080108016D000801080126
:104EE000080108010801080108010801080108017A
:104EF000DF003F000801C500C50008013F000801B0
:104F000008010801080108010801FB000801080167
:104F1000EC0008016D00080108016D002122BEE7C8
:104F20003122BCE74122BAE75122B8E76122B6E755
:104F30001122B4E7822A0DD0079B191D07911B6827
:104F40001846D917112A1FD0722A0CD158B243F330
:104F5000C01108E0079B073323F0070303F10802A1
:104F6000079218685968CDF814A0CDF810B0099BC5
:104F7000039301230293009001910BAA314640460E
:104F8000FFF718FD3D46B2E018B243F3C031EAE73F
:104F9000822A0ED0079B191D07911868014600232D
:104FA000512A29D0722A24D0112A0BD181B2002390
:104FB00008E0079B073323F0070303F10802079279
:104FC00019685B68B9F1750F18D0B9F1580F26D080
:104FD000CDF814A0CDF810B0099A039202220292E3
:104FE000009101930BAA31464046FFF7E3FC3D4692
:104FF0007DE0C1B20023E5E7C317E3E7CDF814A0D5
:10500000CDF810B0099A0392002202920091019308
:105010000BAA31464046FFF7CDFC3D4667E0CDF890
:1050200014A0CDF810B0099A0392032202920091C5
:1050300001930BAA31464046FFF7BCFC3D4656E0C3
:10504000079B073323F0070303F108020792D3E914
:105050000023CDF814A0CDF810B0099903910A9956
:105060000291CDE900230BAA31464046FFF794FD9B
:105070003D463CE0079B1A1D07921B78CDF800A027
:105080000BAA31464046FFF774FC3D462FE0079BD4
:105090001A1D07921B68CDF804A00A9A00920BAA69
:1050A00031464046FFF76CFE3D4620E0079B1A1D47
:1050B00007921B68CDF800A00BAA31464046FFF7C7
:1050C0007AFE3D4613E0CDF800A025230BAA314619
:1050D0004046FFF74EFCB9F1250F08D13D4606E0EA
:1050E000CDF800A00BAA31464046FFF742FC01353F
:1050F000635D002B00F09680252BF1D16F1CE35DE2
:10510000203BDBB20D2B07D842F6090222FA03F34B
:1051100013F0010F00D0AF1C00230993E35D2A2B8D
:105120003FF48BAE302B3FF48FAE4FF0000B09A94C
:10513000E019FFF70BFC38446FF000430A93235C3F
:105140002E2B3FF488AE2E2B3FF491AE235C682BC0
:105150003FF496AE6C2B3FF49AAE4C3B2E2B3FF6B1
:105160009DAE01A252F823F02D4F00089D4E00087D
:105170009D4E00089D4E00089D4E00089D4E000863
:105180009D4E00089D4E00089D4E00089D4E000853
:105190009D4E00089D4E00089D4E00089D4E000843
:1051A0009D4E00089D4E00089D4E00089D4E000833
:1051B0009D4E00089D4E00089D4E00089D4E000823
:1051C0009D4E00089D4E00089D4E00089D4E000813
:1051D0009D4E00089D4E0008314F00089D4E00086E
:1051E000214F00089D4E00081D4F00089D4E0008ED
:1051F0009D4E00089D4E00089D4E00089D4E0008E3
:105200009D4E00089D4E0008294F00089D4E000845
:105210009D4E00089D4E00089D4E00089D4E0008C2
:10522000254F0008B8F1000F07D0069B2BB90B9B48
:10523000B34206D8002208F803200B980DB0BDE851
:10524000F08F002308F80630F7E700BF10B582B0F2
:1052500000240094FFF7D8FD02B010BD00B583B064
:10526000134600900A466FF000410020FFF7CCFD86
:1052700003B05DF804FB000008B5024B1B6803B1E6
:10528000984708BDF405002010B5044600F0ACFBBB
:10529000204610BD10B5044600F0BEFB204610BDF0
:1052A000002070476FF0150070476FF015007047D1
:1052B0001120704770B5044603681B690122002164
:1052C0009847051E0EDB23681B6902220021204639
:1052D0009847064623681B690022294620469847BE
:1052E000304670BD2E46FBE708B5044B186818B170
:1052F0004FF0FF3102F0C0FA08BD00BFE4120020F9
:1053000008B5034B186808B102F0CEFA08BD00BF1B
:10531000E412002010B50446FEF782FE20460E4B34
:1053200040F8203B04F11801FEF745FED4E90823BC
:10533000C4E90A2300220023C4E90C230023A36349
:1053400084F83C3084F83D3084F83E3084F83F30B7
:1053500084F84030204610BDE8AE00084FF0FF3022
:105360007047000010B590F83F305BB90446FEF777
:1053700078FE002384F83C3084F83D3094F84030C7
:105380002BB910BD8E220549054800F075FA00239F
:1053900084F8403000F09CFEF3E700BF2CA4000826
:1053A0003CA4000810B5044601F1300000F070FA8A
:1053B000C4E90001204610BD036B426B013342F18A
:1053C000000203634263836AC26A13F57A7342F18F
:1053D00000028362C2627047024B4FF080625A60E3
:1053E000704700BF00ED00E008B5383050E8002FEE
:1053F000013A40E80023002BF8D102B908BDFFF7BD
:10540000EBFFFBE7024B4FF000725A60704700BFA2
:1054100000ED00E010B50446FEF723FE002384F8FB
:105420003F30FFF7EFFF10BD10B404684368086811
:105430004A688442934134BF012000205DF8044B48
:10544000704730B40568446808684A68510141EA09
:10545000D06143011B1A61EB0201890041EA93719B
:105460009B001B1842EB0102D20042EA5372DB00A0
:105470009D4274EB020234BF0120002030BC704713
:105480000B680360704730B50B684C689E46156822
:105490005268510141EAD5616B015B1B61EB02016E
:1054A000890041EA93719B005B1942EB0102D20033
:1054B00042EA5372DB00BEEB030364EB02040360B9
:1054C000446030BD10B584B00446D1E90001CDE997
:1054D000020102A96846FFF7D6FFDDE90023C4E90F
:1054E0000023204604B010BD30B40C68496815682C
:1054F0005268641B61EB02010460416030BC70477C
:1055000010B584B0044691ED007B8DED007BD2E9AF
:105510000023CDE9022302AA6946FFF7E5FF2046F2
:1055200004B010BD70B40D684C6816685268510123
:1055300041EAD66173019B1B61EB0201890041EADC
:1055400093719B009B1942EB0102D20042EA537215
:10555000DB005B1942EB04020360426070BC7047E1
:1055600010B584B00446D1E90001CDE9020102A9D9
:105570006846FFF7D7FFDDE90023C4E90023204692
:1055800004B010BD10B584B0044601220023CDE95B
:10559000022302AA00F128016846FFF7E1FFDDE9D6
:1055A00000232046FEF752FD04B010BD10B504469E
:1055B000012380F83F30836B1BB92046FFF7E2FFE1
:1055C00010BDFFF709FFF8E710B5044690F83C302E
:1055D0004BB1002380F83C3090F83E3033B90123C2
:1055E00080F83D3002E090F83F3003B910BD836B86
:1055F00001338363FFF7F0FE2046FFF7DDFE204610
:10560000FFF7C0FFF2E7F0B58BB005460C4602AFDE
:1056100018313846FEF7CFFC04F1280239466846B7
:10562000FEF7DEFC01220023CDE9042304A968462D
:10563000FFF707FF30B100220023C5E90023284609
:105640000BB0F0BD02220023CDE9062306A968466F
:10565000FFF7F7FE20B101220023C5E90023EEE7A2
:10566000009801994FF0FF3383424FF000038B41C4
:1056700007DA4FF47A72002304F02AF9C5E9000131
:10568000DDE7694609A8FFF7FBFE4FF47A720023B5
:105690000998002104F01CF9C5E90001CFE70000DA
:1056A00070B582B091F83F30002B31D105460C46E1
:1056B00091F83C3063BB6846FFF7A5FF009B01985B
:1056C0000022A2631946420142EAD3625B015B1ADF
:1056D00062EB0002920042EA93729B005B1842EB7D
:1056E0000002D20042EA5372DB00A66AF318E66AAF
:1056F00046EB0202A362E262236B626B5B1842EB31
:105700000002236362632B606A60284602B070BDAA
:10571000E5220249024800F0AFF800BF2CA40008BF
:1057200048A4000810B40468436808684A688442C2
:10573000934134BF012000205DF8044B704700B551
:1057400085B0D0E90023CDE90023D1E90023CDE9DC
:10575000022302A96846FFF7E5FF05B05DF804FBE8
:1057600030B58FB0CDE9022390F83F302BB9044615
:1057700090F83C3033B10FB030BD58223249334835
:1057800000F07AF808AD01462846FFF789FF02A924
:105790002846FFF7D4FF18B9012384F83D30EAE723
:1057A0000AAD21462846FFF7FDFD2A4602A906A8B4
:1057B000FFF7A6FEDDE90223CDE90C230CAA04F1D4
:1057C00020016846FFF7CCFEDDE90023CDE9042384
:1057D000012384F83C30002384F83D3094F84030B5
:1057E00023B9A3691B6893F820309BB106A9184818
:1057F000FFF71AFE10B194F840308BB1002384F803
:105800003E3094F84030CBB1DDE904232046FEF76A
:105810001DFCB0E7012384F8403000F03DFCE5E7D3
:10582000012384F83E300A4A04A96846FFF74AFE7D
:10583000DDE900232046FEF709FC9CE7012384F8FC
:10584000403000F029FCDFE72CA400083CA400084D
:10585000F0AE000808B503F07DF808BD08B5724643
:10586000FFF7F8FF08BD08B503F000F808BD08B55C
:105870007246FFF7F8FF08BD00B583B00B460092F3
:1058800000220146014800F075FA00BF4401FF8084
:1058900038B5044600F0A8F8D4E9004500F0BCF89B
:1058A0002046294638BD000000B589B000F09CF8BC
:1058B00001A80023019343608360C36003614361D7
:1058C00083611321FEF73FFC21E0039B019A1A60DC
:1058D000104D284600F0CDFE049B019A1A60284620
:1058E00000F0C7FE0134032CEFDD00240DE0039B24
:1058F000019A1A60084D284600F0BBFE049B019AED
:105900001A60284600F0B5FE0134032CEFDD0024B8
:10591000E9E700BFF0490200801A060010B582B026
:10592000044600220146022000F0EAFC00F05CF888
:10593000002206E001222146022000F0E1FC14F8DA
:10594000012B23786BB10A2BF4D10D2AF2D00D2351
:105950008DF8073001220DF10701022000F0D0FC84
:10596000E8E700F059F802B010BD000000B5A3B0A0
:1059700002460B46842101A8FFF768FC03468328F2
:1059800006D9084A1068CDF8830012798DF887206F
:10599000002B02DC23B05DF804FB01A8FFF7BEFF7B
:1059A000F8E700BF68A400080FB400B583B004A9ED
:1059B00051F8040B0191FFF7D9FF03B05DF804EB38
:1059C00004B07047EFF3108000F0010080F0010098
:1059D0007047EFF30580003818BF0120704708B505
:1059E000FEF78AFB08BD000008B5FEF759FB074B20
:1059F0001B68B3F1FF3F03D00133044A136008BDB5
:105A00003F2203490348FFF737FF00BFF805002096
:105A1000ACA40008BCA4000808B5054B1B681BB16A
:105A2000013B034A136003B108BDFEF74BFBFBE7E4
:105A3000F80500200246A0B101680D4B0B44012B74
:105A400007D90C4B994204D0033B994201D0002066
:105A5000704793683BB1DB6C13F0080F05D0002052
:105A6000704700207047002070470120704700BF3A
:105A7000C2FE007F4001FF802DE9F04184B0044662
:105A80000F4616469846016801F0C042B2F1C04F79
:105A900016D08DB2C1F307432A463E48FFF784FF74
:105AA000A5F23115132D11D8DFE805F00C474C5144
:105AB00056605B6510101010101010101010106A56
:105AC0004D42E7E7A1683448FFF76EFF3846FFF71D
:105AD00025FF61683148FFF767FF4EB13048FFF797
